{
  "contractName": "HelloEthSalon",
  "abi": [
    {
      "inputs": [],
      "payable": false,
      "stateMutability": "nonpayable",
      "type": "constructor"
    },
    {
      "constant": false,
      "inputs": [],
      "name": "boolCalc",
      "outputs": [
        {
          "name": "",
          "type": "bool"
        }
      ],
      "payable": false,
      "stateMutability": "nonpayable",
      "type": "function"
    },
    {
      "constant": false,
      "inputs": [],
      "name": "GetMessage",
      "outputs": [
        {
          "name": "",
          "type": "string"
        }
      ],
      "payable": false,
      "stateMutability": "nonpayable",
      "type": "function"
    },
    {
      "constant": false,
      "inputs": [],
      "name": "Calc",
      "outputs": [
        {
          "name": "",
          "type": "int256"
        }
      ],
      "payable": false,
      "stateMutability": "nonpayable",
      "type": "function"
    },
    {
      "constant": false,
      "inputs": [
        {
          "name": "first",
          "type": "int256"
        },
        {
          "name": "second",
          "type": "int256"
        }
      ],
      "name": "Calculate",
      "outputs": [
        {
          "name": "",
          "type": "int256"
        }
      ],
      "payable": false,
      "stateMutability": "nonpayable",
      "type": "function"
    }
  ],
  "bytecode": "0x60606040526040805190810160405280601f81526020017f49206b6e6f7720736d61727420636f6e74726163742074657374696e672121008152506000908051906020019061004f929190610065565b506004600155341561006057600080fd5b61010a565b828054600181600116156101000203166002900490600052602060002090601f016020900481019282601f106100a657805160ff19168380011785556100d4565b828001600101855582156100d4579182015b828111156100d35782518255916020019190600101906100b8565b5b5090506100e191906100e5565b5090565b61010791905b808211156101035760008160009055506001016100eb565b5090565b90565b610297806101196000396000f300606060405260043610610062576000357c0100000000000000000000000000000000000000000000000000000000900463ffffffff16806303e33b531461006757806335d64787146100f55780638c64132914610135578063b33fb6cd1461015e575b600080fd5b341561007257600080fd5b61007a61018b565b6040518080602001828103825283818151815260200191508051906020019080838360005b838110156100ba57808201518184015260208101905061009f565b50505050905090810190601f1680156100e75780820380516001836020036101000a031916815260200191505b509250505060405180910390f35b341561010057600080fd5b61011f6004808035906020019091908035906020019091905050610233565b6040518082815260200191505060405180910390f35b341561014057600080fd5b610148610240565b6040518082815260200191505060405180910390f35b341561016957600080fd5b61017161024a565b604051808215151515815260200191505060405180910390f35b610193610257565b60008054600181600116156101000203166002900480601f0160208091040260200160405190810160405280929190818152602001828054600181600116156101000203166002900480156102295780601f106101fe57610100808354040283529160200191610229565b820191906000526020600020905b81548152906001019060200180831161020c57829003601f168201915b5050505050905090565b6000818302905092915050565b6000600154905090565b6000600460015414905090565b6020604051908101604052806000815250905600a165627a7a723058203afeeca18a64f8f02ce3883c9bd1b9081626db5d56f4330e96aacc08be36d5530029",
  "source": "pragma solidity ^0.4.18;\n\ncontract HelloEthSalon {\n  string message = \"I know smart contract testing!!\";\n  int calc = 2*2;\n  \n  function HelloEthSalon() {\n    // constructor\n  }\n\n  function boolCalc() returns (bool) {\n    return calc == 4;\n  }\n\n  function GetMessage() returns (string) {\n    return message;\n  }\n\n  function Calc() returns (int) {\n    return calc; \n  }\n\n  function Calculate(int first, int second) returns (int) {\n    return first*second;\n  }\n}",
  "sourcePath": "/Users/bart.bouman/nodejs/hello-ethereum-salon-contract/contracts/HelloEthSalon.sol",
  "compiler": {
    "name": "solc",
    "version": "0.4.19+commit.c4cbbb05.Emscripten.clang"
  },
  "schemaVersion": "2.0.0",
  "updatedAt": "2018-03-19T14:57:31.403Z"
}